:100000000C9430000C94A2030C94E2030C940C06A4
:100010000C940C060C940C060C940C060C940C0618
:100020000C940C060C940C060C94FC020C940C061C
:100030000C940C060C940C060C940C060C940C06F8
:100040000C940C060C940C060C940C060C940C06E8
:100050000C940C0600600064000C240064006980AD
:1000600011241FBECFE5D8E0DEBFCDBFE4E5F0E050
:1000700040E017C0B591A59135912591059107FDF7
:100080000CC095918591EF01F92FE82F05900D9205
:10009000A217B307D9F7FE0104C01D92A217B30738
:1000A000E1F7E036F40731F70E944A010C9458005A
:0400B000F894FFCFF2
:1000B400452BC9F181309105A9F01CF4892B39F045
:1000C400089582309105C9F0039711F108952AB378
:1000D40081E090E002C0880F991F6A95E2F7822BB5
:1000E4008ABB089527B381E090E002C0880F991F6E
:1000F4006A95E2F7822B87BB089524B381E090E0F0
:1001040002C0880F991F6A95E2F7822B84BB089579
:1001140021B381E090E002C0880F991F6A95E2F74D
:10012400822B81BB089581309105B1F01CF4892B99
:1001340039F0089582309105D9F0039729F1089593
:100144002AB381E090E002C0880F991F6A95E2F714
:10015400809582238ABB089527B381E090E002C092
:10016400880F991F6A95E2F78095822387BB0895CB
:1001740024B381E090E002C0880F991F6A95E2F7EA
:100184008095822384BB089521B381E090E002C06E
:10019400880F991F6A95E2F78095822381BB0895A1
:1001A400452BC9F181309105A9F01CF4892B39F054
:1001B400089582309105C9F0039711F108952BB386
:1001C40081E090E002C0880F991F6A95E2F7822BC4
:1001D4008BBB089528B381E090E002C0880F991F7B
:1001E4006A95E2F7822B88BB089525B381E090E0FD
:1001F40002C0880F991F6A95E2F7822B85BB089588
:1002040022B381E090E002C0880F991F6A95E2F75B
:10021400822B82BB089581309105B1F01CF4892BA7
:1002240039F0089582309105D9F0039729F10895A2
:100234002BB381E090E002C0880F991F6A95E2F722
:10024400809582238BBB089528B381E090E002C09F
:10025400880F991F6A95E2F78095822388BB0895D9
:1002640025B381E090E002C0880F991F6A95E2F7F8
:100274008095822385BB089522B381E090E002C07B
:10028400880F991F6A95E2F78095822382BB0895AF
:1002940063E070E080E090E00E94D00463E070E0EE
:1002A40081E090E00E94D00482E090E00E949605F4
:1002B40063E070E088E090E00E94C1058AEF0E944C
:1002C4000E0678940E94F70541E050E066E070E085
:1002D40082E090E00E945A0041E050E063E070E068
:1002E40082E090E00E945A0039C020E030E040E211
:1002F40051E460916000709161008091620090917E
:1003040063000E9401060E9456036091680070E039
:1003140080E090E00E94240420916000309161000C
:1003240040916200509163000E94FC05811116C047
:1003340040E050E066E070E082E090E00E94D2008D
:1003440040E050E063E070E082E090E00E94D20080
:1003540060E070E080E090E00E94780564E070E086
:1003640083E090E00E949804892B09F0BECF80E0DE
:0403740090E0089578
:1003780010C00E94E30558F00E94DC0540F029F403
:100388005F3F29F00C94F10551110C94EB050C9486
:1003980009060E94560568F39923B1F3552391F392
:1003A800951B550BBB27AA2762177307840738F0DC
:1003B8009F5F5F4F220F331F441FAA1FA9F335D039
:1003C8000E2E3AF0E0E832D091505040E695001CED
:1003D800CAF72BD0FE2F29D0660F771F881FBB1FA7
:1003E800261737074807AB07B0E809F0BB0B802D85
:1003F800BF01FF2793585F4F3AF09E3F510578F0B1
:100408000C94F1050C94EB055F3FE4F3983ED4F3AC
:10041800869577956795B795F7959F5FC9F7880F84
:10042800911D9695879597F90895E1E0660F771FD6
:10043800881FBB1F621773078407BA0720F0621B67
:0E044800730B840BBA0BEE1F88F7E095089536
:100456000FC00E94DC0538F00E94E30520F09523CA
:1004660011F00C94F1050C94090611240C94EB057B
:100476000E94560570F3959FC1F3950F50E0551FE6
:10048600629FF001729FBB27F00DB11D639FAA27E3
:10049600F00DB11DAA1F649F6627B00DA11D661F32
:1004A600829F2227B00DA11D621F739FB00DA11D53
:1004B600621F839FA00D611D221F749F3327A00D0D
:1004C600611D231F849F600D211D822F762F6A2FA9
:1004D60011249F5750409AF0F1F088234AF0EE0F0E
:1004E600FF1FBB1F661F771F881F91505040A9F73B
:1004F6009E3F510580F00C94F1050C94EB055F3F8F
:10050600E4F3983ED4F3869577956795B795F79576
:10051600E7959F5FC1F7FE2B880F911D96958795EE
:0405260097F90895A4
:10052A0011C00E94DC0538F00E94E30520F039F47E
:10053A009F3F19F426F40C9409060EF4E095E7FBA4
:10054A000C94F105E92F0E94560558F3BA17620771
:10055A0073078407950720F079F4A6F50C94EA0549
:10056A000EF4E0950B2EBA2FA02D0B01B9019001C4
:10057A000C01CA01A0011124FF27591B99F0593F08
:10058A0050F4503E68F11A16F040A22F232F342F50
:10059A004427585FF3CF469537952795A795F0409E
:1005AA005395C9F77EF41F16BA0B620B730B840BB3
:1005BA00BAF09150A1F0FF0FBB1F661F771F881F6B
:1005CA00C2F70EC0BA0F621F731F841F48F48795C3
:1005DA0077956795B795F7959E3F08F0B0CF9395B5
:0E05EA00880F08F09927EE0F979587950895D2
:1005F8001F920F920FB60F9211242F933F934F9390
:100608005F936F937F938F939F93AF93BF93EF9372
:10061800FF93809166009091670001969093670020
:100628008093660020916400309165002F5F3F4FF2
:1006380030936500209364008436910551F40E943C
:1006480010060E94CE0580936800109267001092F1
:1006580066008091640090916500883E934089F41B
:100668009E9B0BC060E070E082E090E00E945F0417
:10067800109265001092640004C0109265001092F8
:100688006400FF91EF91BF91AF919F918F917F91FE
:100698006F915F914F913F912F910F900FBE0F90E7
:0406A8001F901895F2
:1006AC00CF92DF92EF92FF92CF936B017C018FEF91
:1006BC0087BBC701B6010E940305C598C69AC49AA8
:1006CC00C098C198C298C39888B3862B88BB2FEF6B
:1006DC0086E791E0215080409040E1F700C0000097
:1006EC00C59AC698C49AC098C198C298C398C8B302
:1006FC0070E080E090E00E9424049B01AC01C701F3
:10070C00B6010E94D50520E030E040E251E40E94A1
:10071C0005060E940305C62BC8BB2FEF86E791E0A8
:10072C00215080409040E1F700C00000CF91FF9035
:08073C00EF90DF90CF900895CB
:100744001F920F920FB60F9211242F933F934F9342
:100754005F936F937F938F939F93AF93BF93EF9325
:10076400FF9320E030E040EA50E460916000709133
:10077400610080916200909163000E94D6056093AD
:10078400600070936100809362009093630020E0A6
:1007940030E040E251E40E9401060E945603FF91BA
:1007A400EF91BF91AF919F918F917F916F915F91E5
:1007B4004F913F912F910F900FBE0F901F9018955E
:1007C4001F920F920FB60F9211242F933F934F93C2
:1007D4005F936F937F938F939F93AF93BF93EF93A5
:1007E400FF9320E030E040EA50E4609160007091B3
:1007F400610080916200909163000E94D50560932E
:10080400600070936100809362009093630020E025
:1008140030E040E251E40E9401060E945603FF9139
:10082400EF91BF91AF919F918F917F916F915F9164
:100834004F913F912F910F900FBE0F901F901895DD
:10084400E89409C097FB3EF4909580957095619566
:100854007F4F8F4F9F4F9923A9F0F92F96E9BB271C
:100864009395F695879577956795B795F111F8CF98
:10087400FAF4BB0F11F460FF1BC06F5F7F4F8F4F03
:100884009F4F16C0882311F096E911C0772321F0F9
:100894009EE8872F762F05C0662371F096E8862F91
:1008A40070E060E02AF09A95660F771F881FDAF7E8
:0A08B400880F9695879597F908952F
:1008BE0081309105A9F01CF4892B39F0089582300E
:1008CE009105C9F0039711F108952BB381E090E0E3
:1008DE0002C0880F991F6A95E2F782278BBB089595
:1008EE0028B381E090E002C0880F991F6A95E2F765
:1008FE00822788BB089525B381E090E002C0880F5F
:10090E00991F6A95E2F7822785BB089522B381E08D
:10091E0090E002C0880F991F6A95E2F7822782BB8A
:02092E0008952A
:1009300081309105A1F01CF4892B39F02EC0823052
:100940009105B9F00397F9F028C089B390E002C08F
:10095000959587956A95E2F781709927089586B3F2
:1009600090E002C0959587956A95E2F78170992786
:10097000089583B390E002C0959587956A95E2F754
:1009800081709927089580B390E002C0959587956E
:100990006A95E2F781709927089580E090E00895C4
:1009A0008130910579F082309105D1F0892B51F594
:1009B00085B78C7F85BF85B7682B65BF8BB7806493
:1009C0008BBF089585B7837F85BF85B7660F771F77
:1009D000660F771F682B65BF8BB780688BBF089544
:1009E00084B78F7B84BF84B700247695679507947E
:1009F000769567950794762F602D682B64BF8BB72B
:060A000080628BBF089527
:100A06000E945E0588F09F5798F0B92F9927B75135
:100A1600B0F0E1F0660F771F881F991F1AF0BA959C
:100A2600C9F714C0B13091F00E94EA05B1E008950B
:100A36000C94EA05672F782F8827B85F39F0B93FFD
:100A4600CCF3869577956795B395D9F73EF490954F
:0E0A56008095709561957F4F8F4F9F4F08954B
:100A6400990F0008550FAA0BE0E8FEEF16161706BB
:100A7400E807F907C0F012161306E407F50798F023
:100A8400621B730B840B950B39F40A2661F0232B3C
:100A9400242B252B21F408950A2609F4A140A695B8
:080AA4008FEF811D811D0895F3
:100AAC0057FD9058440F551F59F05F3F71F0479513
:100ABC00880F97FB991F61F09F3F79F087950895F8
:100ACC00121613061406551FF2CF4695F1DF08C017
:100ADC00161617061806991FF1CF86957105610534
:040AEC0008940895CD
:100AF000672B71F08130910539F08230910531F02A
:100B0000892B99F4A89A0895A99A0895929A08951C
:100B10008130910539F08230910531F0892B29F42B
:0C0B2000A8980895A99808959298089547
:100B2C00CF93DF93EC0141E050E060E070E080E0B7
:100B3C0090E00E945A0083B78F7C83BF83B7C29525
:100B4C00D295D07FDC27C07FDC27C82BC3BFDF91B9
:040B5C00CF91089598
:100B6000092E0394000C11F4882352F0BB0F40F4BB
:100B7000BF2B11F460FF04C06F5F7F4F8F4F9F4FFB
:020B80000895D6
:100B820093B7977B93BF93B7987F93BF93B7892B04
:0A0B920083BF83B7682B63BF08958B
:0E0B9C00349BFECF84B125B190E0922B0895DA
:0E0BAA005058BB27AA270E9495020C94B00554
:0E0BB80000240A94161617061806090608955A
:0E0BC60000240A94121613061406050608955C
:0E0BD400E894BB2766277727CB0197F9089591
:0C0BE20097F99F6780E870E060E00895DC
:0A0BEE0084B3836084BBA29A0895CB
:0A0BF8000E94320508F481E0089520
:080C02000E94BC010C94B00536
:080C0A000E942B020C94B005BE
:060C12009FEF80EC089545
:040C18000C94000038
:040C1C008CBF0895EC
:040C2000369A089563
:040C2400000070421A
:00000001FF
