:100000000C9433000C9441040C94A6040C94020844
:100010000C9482010C9402080C9402080C940208BF
:100020000C9402080C9402080C940B050C94020822
:100030000C9402080C9402080C9402080C94020818
:100040000C9402080C9402080C9402080C94020808
:100050000C940208006000648000640068001018BE
:1000600000680071800011241FBECFE5D8E0DEBF1C
:10007000CDBFE4E5F0E040E017C0B591A591359122
:100080002591059107FD0CC095918591EF01F92F00
:10009000E82F05900D92A217B307D9F7FE0104C00F
:1000A0001D92A217B307E1F7E536F40731F70E9476
:0A00B0005D000C945B00F894FFCF94
:1000BA0060E070E083E090E00E94810663E070E017
:1000CA0080E090E00E944E0663E070E081E090E0FC
:1000DA000E944E0641E050E062E070E082E090E06B
:1000EA000E94110241E050E064E070E082E090E09A
:1000FA000E94110282E090E00E9440078AEF0E946B
:10010A000A0882E090E00E9426078AEF0E94060809
:10011A000E94040847E050E061E070E080E090E06F
:10012A000E945A0787E090E00E94A80781E090E0C9
:10013A000E949D0763E070E088E090E00E949007CB
:10014A0063E070E088E090E00E9483077894AFC093
:10015A00C0916E00D0916F00BE010D2E000C880B6D
:10016A00990B0E94A2059B01AC01609164007091F9
:10017A00650080916600909167000E94C40720E0A4
:10018A0030E040EA50E40E94ED07811113C0CD2B04
:10019A0009F496C041E050E064E070E082E090E04B
:1001AA000E94890240E050E062E070E082E090E064
:1001BA000E948902C0916E00D0916F00BE010D2E7F
:1001CA00000C880B990B0E94A205209164003091C3
:1001DA00650040916600509167000E94C40720E0C4
:1001EA0030E040EA50E40E94ED07811119C0CD2B9E
:1001FA0009F445C041E050E062E070E082E090E03E
:10020A000E94890240E050E064E070E082E090E001
:10021A000E94890261E070E080E090E00E94B307EA
:10022A00C0916E00D0916F00BE010D2E000C880B9C
:10023A00990B0E94A20520916400309165004091BB
:10024A006600509167000E94ED07811118C0CD2BFE
:10025A00B1F040E050E062E070E082E090E00E949D
:10026A00890240E050E064E070E082E090E00E94A1
:10027A00890260E070E080E090E00E94B30780911C
:10028A0070008823A1F020E030E040E251E4609160
:10029A0064007091650080916600909167000E94E9
:1002AA00F7070E945805809170008111ECCF64E035
:1002BA0070E083E090E00E941606892BC1F348CFD4
:1002CA0060916E0070916F00072E000C880B990BDD
:1002DA000E94A20520916400309165004091660059
:1002EA00509167000E94C40720E030E040EA50E4E1
:0A02FA000E94ED07882319F293CF4C
:100304001F920F920FB60F9211242F933F934F9386
:100314005F936F937F938F939F93AF93BF93EF9369
:10032400FF9380916C0090916D00019690936D0005
:1003340080936C0020916A0030916B002F5F3F4FD7
:1003440030936B0020936A008436910541F50E9436
:1003540008080E94BD07BC01990F880B990B0E94E5
:10036400A20520E93EE34AEF5EE30E94FB079B01FE
:10037400AC01609160007091610080916200909185
:1003840063000E94C50760936000709361008093CE
:1003940062009093630010926D0010926C00809143
:1003A4006A0090916B00883E934041F520E030E074
:1003B40040E251E4609160007091610080916200BC
:1003C400909163000E94F7070E94CB0770936F001F
:1003D40060936E00109260001092610010926200AF
:1003E400109263009C9B06C060E070E082E090E0A5
:1003F4000E94DD0510926B0010926A00FF91EF914C
:10040400BF91AF919F918F917F916F915F914F9128
:0E0414003F912F910F900FBE0F901F901895E3
:10042200452BC9F181309105A9F01CF4892B39F0D3
:10043200089582309105C9F0039711F108952AB306
:1004420081E090E002C0880F991F6A95E2F7822B43
:100452008ABB089527B381E090E002C0880F991FFC
:100462006A95E2F7822B87BB089524B381E090E07E
:1004720002C0880F991F6A95E2F7822B84BB089508
:1004820021B381E090E002C0880F991F6A95E2F7DC
:10049200822B81BB089581309105B1F01CF4892B28
:1004A20039F0089582309105D9F0039729F1089522
:1004B2002AB381E090E002C0880F991F6A95E2F7A3
:1004C200809582238ABB089527B381E090E002C021
:1004D200880F991F6A95E2F78095822387BB08955A
:1004E20024B381E090E002C0880F991F6A95E2F779
:1004F2008095822384BB089521B381E090E002C0FD
:10050200880F991F6A95E2F78095822381BB08952F
:10051200452BC9F181309105A9F01CF4892B39F0E2
:10052200089582309105C9F0039711F108952BB314
:1005320081E090E002C0880F991F6A95E2F7822B52
:100542008BBB089528B381E090E002C0880F991F09
:100552006A95E2F7822B88BB089525B381E090E08B
:1005620002C0880F991F6A95E2F7822B85BB089516
:1005720022B381E090E002C0880F991F6A95E2F7EA
:10058200822B82BB089581309105B1F01CF4892B36
:1005920039F0089582309105D9F0039729F1089531
:1005A2002BB381E090E002C0880F991F6A95E2F7B1
:1005B200809582238BBB089528B381E090E002C02E
:1005C200880F991F6A95E2F78095822388BB089568
:1005D20025B381E090E002C0880F991F6A95E2F787
:1005E2008095822385BB089522B381E090E002C00A
:1005F200880F991F6A95E2F78095822382BB08953E
:1006020010C00E94D90758F00E94D20740F029F486
:100612005F3F29F00C94E70751110C94E1070C9409
:10062200FF070E94040768F39923B1F3552391F35E
:10063200951B550BBB27AA2762177307840738F04F
:100642009F5F5F4F220F331F441FAA1FA9F335D0AC
:100652000E2E3AF0E0E832D091505040E695001C60
:10066200CAF72BD0FE2F29D0660F771F881FBB1F1A
:10067200261737074807AB07B0E809F0BB0B802DF8
:10068200BF01FF2793585F4F3AF09E3F510578F024
:100692000C94E7070C94E1075F3FE4F3983ED4F330
:1006A200869577956795B795F7959F5FC9F7880FF8
:1006B200911D9695879597F90895E1E0660F771F4A
:1006C200881FBB1F621773078407BA0720F0621BDB
:0E06D200730B840BBA0BEE1F88F7E0950895AA
:1006E0000FC00E94D20738F00E94D90720F095234E
:1006F00011F00C94E7070C94FF0711240C94E10708
:100700000E94040770F3959FC1F3950F50E0551FA9
:10071000629FF001729FBB27F00DB11D639FAA2756
:10072000F00DB11DAA1F649F6627B00DA11D661FA5
:10073000829F2227B00DA11D621F739FB00DA11DC6
:10074000621F839FA00D611D221F749F3327A00D80
:10075000611D231F849F600D211D822F762F6A2F1C
:1007600011249F5750409AF0F1F088234AF0EE0F81
:10077000FF1FBB1F661F771F881F91505040A9F7AE
:100780009E3F510580F00C94E7070C94E1075F3F12
:10079000E4F3983ED4F3869577956795B795F795EA
:1007A000E7959F5FC1F7FE2B880F911D9695879562
:0407B00097F9089518
:1007B40011C00E94D20738F00E94D90720F039F402
:1007C4009F3F19F426F40C94FF070EF4E095E7FB21
:1007D4000C94E707E92F0E94040758F3BA1762073D
:1007E40073078407950720F079F4A6F50C94E007C5
:1007F4000EF4E0950B2EBA2FA02D0B01B901900138
:100804000C01CA01A0011124FF27591B99F0593F7B
:1008140050F4503E68F11A16F040A22F232F342FC3
:100824004427585FF3CF469537952795A795F04011
:100834005395C9F77EF41F16BA0B620B730B840B26
:10084400BAF09150A1F0FF0FBB1F661F771F881FDE
:10085400C2F70EC0BA0F621F731F841F48F4879536
:1008640077956795B795F7959E3F08F0B0CF939528
:0E087400880F08F09927EE0F97958795089545
:100882001F920F920FB60F921124CF92DF92EF9226
:10089200FF922F933F934F935F936F937F938F9327
:1008A2009F93AF93BF93EF93FF93C0906400D09058
:1008B2006500E0906600F090670020E030E046E9D5
:1008C20052E4C701B6010E94ED0788234CF520E0EF
:1008D20030E040EA50E4C701B6010E94C5076093C8
:1008E200640070936500809366009093670061E0F6
:1008F20070E081E090E00E94810620E030E040E27A
:1009020051E460916400709165008091660090915D
:1009120067000E94F7070E94580581E080937000EB
:10092200FF91EF91BF91AF919F918F917F916F91C5
:100932005F914F913F912F91FF90EF90DF90CF9079
:0A0942000F900FBE0F901F90189544
:10094C001F920F920FB60F921124CF92DF92EF925B
:10095C00FF922F933F934F935F936F937F938F935C
:10096C009F93AF93BF93EF93FF93C0906400D0908D
:10097C006500E0906600F090670020E030E04CE00D
:10098C0052E4C701B6010E94F20718164CF520E09C
:10099C0030E040EA50E4C701B6010E94C4076093FE
:1009AC00640070936500809366009093670061E02B
:1009BC0070E081E090E00E94810620E030E040E2AF
:1009CC0051E4609164007091650080916600909193
:1009DC0067000E94F7070E94580581E08093700021
:1009EC00FF91EF91BF91AF919F918F917F916F91FB
:1009FC005F914F913F912F91FF90EF90DF90CF90AF
:0A0A0C000F900FBE0F901F90189579
:100A16001F920F920FB60F9211242F933F934F936D
:100A26005F936F937F938F939F93AF93BF93EF9350
:100A3600FF9362E070E083E090E00E941606892B47
:100A4600F9F463E070E083E090E00E941606892BDB
:100A5600B9F48091680090916900019690936900BD
:100A6600809368008838934179F460E070E081E013
:100A760090E00E948106109269001092680004C0FE
:100A86001092690010926800FF91EF91BF91AF91AB
:100A96009F918F917F916F915F914F913F912F9190
:0A0AA6000F900FBE0F901F901895DF
:100AB000CF92DF92EF92FF92CF936B017C010E9465
:100AC000B106C598C69AC49AC098C198C298C398EE
:100AD00088B3862B88BB2FE785EB91E021508040BF
:100AE0009040E1F700C00000C59AC698C49AC0982B
:100AF000C198C298C398C8B370E080E090E00E94AB
:100B0000A2059B01AC01C701B6010E94C40720E009
:100B100030E040E251E40E94FB070E94B106C62B80
:100B2000C8BB2FE785EB91E0215080409040E1F772
:100B300000C00000CF91FF90EF90DF90CF9008951C
:100B4000E89409C097FB3EF4909580957095619567
:100B50007F4F8F4F9F4F9923A9F0F92F96E9BB271D
:100B60009395F695879577956795B795F111F8CF99
:100B7000FAF4BB0F11F460FF1BC06F5F7F4F8F4F04
:100B80009F4F16C0882311F096E911C0772321F0FA
:100B90009EE8872F762F05C0662371F096E8862F92
:100BA00070E060E02AF09A95660F771F881FDAF7E9
:0A0BB000880F9695879597F9089530
:100BBA0081309105A9F01CF4892B39F0089582300F
:100BCA009105C9F0039711F108952BB381E090E0E4
:100BDA0002C0880F991F6A95E2F782278BBB089596
:100BEA0028B381E090E002C0880F991F6A95E2F766
:100BFA00822788BB089525B381E090E002C0880F60
:100C0A00991F6A95E2F7822785BB089522B381E08E
:100C1A0090E002C0880F991F6A95E2F7822782BB8B
:020C2A0008952B
:100C2C0081309105A1F01CF4892B39F02EC0823053
:100C3C009105B9F00397F9F028C089B390E002C090
:100C4C00959587956A95E2F781709927089586B3F3
:100C5C0090E002C0959587956A95E2F78170992787
:100C6C00089583B390E002C0959587956A95E2F755
:100C7C0081709927089580B390E002C0959587956F
:100C8C006A95E2F781709927089580E090E00895C5
:100C9C008130910579F082309105D1F0892B51F595
:100CAC0085B78C7F85BF85B7682B65BF8BB7806494
:100CBC008BBF089585B7837F85BF85B7660F771F78
:100CCC00660F771F682B65BF8BB780688BBF089545
:100CDC0084B78F7B84BF84B700247695679507947F
:100CEC00769567950794762F602D682B64BF8BB72C
:060CFC0080628BBF089529
:100D0200672BC9F08130910569F01CF4892B39F009
:100D120008958230910549F0039751F008958FEFBD
:100D22008ABB08958FEF87BB08958FEF84BB089528
:100D32008FEF81BB08958130910561F01CF4892BFE
:100D420039F008958230910539F0039739F008950A
:100D52001ABA089517BA089514BA089511BA0895DF
:100D62000E940C0788F09F5798F0B92F9927B75126
:100D7200B0F0E1F0660F771F881F991F1AF0BA953D
:100D8200C9F714C0B13091F00E94E007B1E00895B4
:100D92000C94E007672F782F8827B85F39F0B93FA6
:100DA200CCF3869577956795B395D9F73EF49095F0
:0E0DB2008095709561957F4F8F4F9F4F0895EC
:100DC000990F0008550FAA0BE0E8FEEF161617065C
:100DD000E807F907C0F012161306E407F50798F0C4
:100DE000621B730B840B950B39F40A2661F0232BDD
:100DF000242B252B21F408950A2609F4A140A69559
:080E00008FEF811D811D089593
:100E080057FD9058440F551F59F05F3F71F04795B3
:100E1800880F97FB991F61F09F3F79F08795089598
:100E2800121613061406551FF2CF4695F1DF08C0B7
:100E3800161617061806991FF1CF869571056105D4
:040E4800089408956D
:100E4C00CF93DF93EC0141E050E060E070E080E094
:100E5C0090E00E94110283B78F7C83BF83B7C29549
:100E6C00D295D07FDC27C07FDC27C82BC3BFDF9196
:040E7C00CF91089575
:100E8000CF93DF93EC0141E050E067E070E083E056
:100E900090E00E94110285B58F7C85BD85B5C29515
:100EA000D295D07FDC27C07FDC27C82BC5BDDF9162
:040EB000CF91089541
:100EB40017B897B1892B87B987B1002476956795C0
:100EC4000794769567950794762F602D682B67B9FC
:100ED40086B1887F86B986B1482B46B9379A08957A
:100EE400092E0394000C11F4882352F0BB0F40F434
:100EF400BF2B11F460FF04C06F5F7F4F8F4F9F4F74
:020F040008954E
:100F060093B7977B93BF93B7987F93BF93B7892B7C
:0A0F160083BF83B7682B63BF089503
:100F200095B5977B95BD95B5987F95BD95B5892B62
:0A0F300085BD85B5682B65BD0895E9
:100F3A0099B721E030E002C0220F331F8A95E2F709
:060F4A00292B29BF0895C8
:100F500099B721E030E002C0220F331F8A95E2F7F3
:060F6000292B29BF0895B2
:100F66006115710529F06130710519F4A89A089583
:040F7600A89808959A
:0E0F7A00349BFECF84B125B190E0922B0895F8
:0E0F88005058BB27AA270E94DA030C94720768
:0E0F96000E94B1066894B1110C94E107089511
:0E0FA40000240A94161617061806090608956A
:0E0FB20000240A94121613061406050608956C
:0E0FC000E894BB2766277727CB0197F90895A1
:0C0FCE0097F99F6780E870E060E00895EC
:0A0FDA000E94E00608F481E008958B
:0A0FE4000E94E00608F48FEF089564
:080FEE000E9401030C9472073C
:080FF6000E9470030C947207C5
:060FFE009FEF80EC089556
:041004000C94000048
:04100800A09A08950D
:04100C008CBF0895F8
:04101000369A08956F
:0410140083BD0895FB
:041018000000704222
:00000001FF
