:100000000C9433000C94CD030C940D040C949606C0
:100010000C9496060C9496060C9496060C949606F0
:100020000C9496060C9496060C9444020C94960636
:100030000C9496060C9496060C9496060C949606D0
:100040000C9496060C9496060C9496060C949606C0
:100050000C949606006000648000640068000D380F
:100060000068006C800011241FBECFE5D8E0DEBF21
:10007000CDBFE4E5F0E040E017C0B591A591359122
:100080002591059107FD0CC095918591EF01F92F00
:10009000E82F05900D92A217B307D9F7FE0104C00F
:1000A0001D92A217B307E1F7E536F40731F70E9476
:0A00B0005D000C945B00F894FFCF94
:1000BA0063E070E080E090E00E94FB0463E070E09F
:1000CA0081E090E00E94FB0482E090E00E94F1054A
:1000DA0063E070E088E090E00E9431068AEF0E94B7
:1000EA00980678940E947C0660E070E083E090E0D5
:1000FA000E942E056FEF70E083E090E00E940B06ED
:10010A0041E050E066E070E082E090E00E94E500A5
:10011A0041E050E063E070E082E090E00E94E50098
:10012A0043C020E030E040E251E460916400709105
:10013A00650080916600909167000E948B060E947C
:10014A0081032FEF83EF91E0215080409040E1F747
:10015A0000C000002091600030916100409162006F
:10016A00509163006091640070916500809166000F
:10017A00909167000E948106811116C040E050E00C
:10018A0066E070E082E090E00E945D0140E050E0AD
:10019A0063E070E082E090E00E945D0160E070E060
:1001AA0080E090E00E94D30564E070E083E090E094
:1001BA000E94C304892B09F4B4CF80E090E008952B
:1001CA00452BC9F181309105A9F01CF4892B39F02E
:1001DA00089582309105C9F0039711F108952AB361
:1001EA0081E090E002C0880F991F6A95E2F7822B9E
:1001FA008ABB089527B381E090E002C0880F991F57
:10020A006A95E2F7822B87BB089524B381E090E0D8
:10021A0002C0880F991F6A95E2F7822B84BB089562
:10022A0021B381E090E002C0880F991F6A95E2F736
:10023A00822B81BB089581309105B1F01CF4892B82
:10024A0039F0089582309105D9F0039729F108957C
:10025A002AB381E090E002C0880F991F6A95E2F7FD
:10026A00809582238ABB089527B381E090E002C07B
:10027A00880F991F6A95E2F78095822387BB0895B4
:10028A0024B381E090E002C0880F991F6A95E2F7D3
:10029A008095822384BB089521B381E090E002C057
:1002AA00880F991F6A95E2F78095822381BB08958A
:1002BA00452BC9F181309105A9F01CF4892B39F03D
:1002CA00089582309105C9F0039711F108952BB36F
:1002DA0081E090E002C0880F991F6A95E2F7822BAD
:1002EA008BBB089528B381E090E002C0880F991F64
:1002FA006A95E2F7822B88BB089525B381E090E0E6
:10030A0002C0880F991F6A95E2F7822B85BB089570
:10031A0022B381E090E002C0880F991F6A95E2F744
:10032A00822B82BB089581309105B1F01CF4892B90
:10033A0039F0089582309105D9F0039729F108958B
:10034A002BB381E090E002C0880F991F6A95E2F70B
:10035A00809582238BBB089528B381E090E002C088
:10036A00880F991F6A95E2F78095822388BB0895C2
:10037A0025B381E090E002C0880F991F6A95E2F7E1
:10038A008095822385BB089522B381E090E002C064
:10039A00880F991F6A95E2F78095822382BB089598
:1003AA0010C00E94680658F00E94610640F029F4C5
:1003BA005F3F29F00C94760651110C9470060C9448
:1003CA0093060E94B10568F39923B1F3552391F37B
:1003DA00951B550BBB27AA2762177307840738F0AA
:1003EA009F5F5F4F220F331F441FAA1FA9F335D007
:1003FA000E2E3AF0E0E832D091505040E695001CBB
:10040A00CAF72BD0FE2F29D0660F771F881FBB1F74
:10041A00261737074807AB07B0E809F0BB0B802D52
:10042A00BF01FF2793585F4F3AF09E3F510578F07E
:10043A000C9476060C9470065F3FE4F3983ED4F36E
:10044A00869577956795B795F7959F5FC9F7880F52
:10045A00911D9695879597F90895E1E0660F771FA4
:10046A00881FBB1F621773078407BA0720F0621B35
:0E047A00730B840BBA0BEE1F88F7E095089504
:100488001F920F920FB60F9211242F933F934F9301
:100498005F936F937F938F939F93AF93BF93EF93E4
:1004A800FF9380916A0090916B00019690936B0086
:1004B80080936A0020916800309169002F5F3F4F58
:1004C800309369002093680084369105E1F40E9416
:1004D8009A060E945306BC01990F880B990B0E943B
:1004E8004F04AB01BC0140936000509361006093DE
:1004F80062007093630084E190E00E944B061092C2
:100508006B0010926A008091680090916900883EA3
:10051800934089F49E9B0BC060E070E082E090E01D
:100528000E948A04109269001092680004C0109218
:10053800690010926800FF91EF91BF91AF919F9170
:100548008F917F916F915F914F913F912F910F9074
:080558000FBE0F901F901895D3
:100560000FC00E94610638F00E94680620F09523B3
:1005700011F00C9476060C94930611240C947006DA
:100580000E94B10570F3959FC1F3950F50E0551F80
:10059000629FF001729FBB27F00DB11D639FAA27D8
:1005A000F00DB11DAA1F649F6627B00DA11D661F27
:1005B000829F2227B00DA11D621F739FB00DA11D48
:1005C000621F839FA00D611D221F749F3327A00D02
:1005D000611D231F849F600D211D822F762F6A2F9E
:1005E00011249F5750409AF0F1F088234AF0EE0F03
:1005F000FF1FBB1F661F771F881F91505040A9F730
:100600009E3F510580F00C9476060C9470065F3F77
:10061000E4F3983ED4F3869577956795B795F7956B
:10062000E7959F5FC1F7FE2B880F911D96958795E3
:0406300097F9089599
:1006340011C00E94610638F00E94680620F039F467
:100644009F3F19F426F40C9493060EF4E095E7FB0F
:100654000C947606E92F0E94B10558F3BA17620785
:1006640073078407950720F079F4A6F50C946F06B8
:100674000EF4E0950B2EBA2FA02D0B01B9019001B9
:100684000C01CA01A0011124FF27591B99F0593FFD
:1006940050F4503E68F11A16F040A22F232F342F45
:1006A4004427585FF3CF469537952795A795F04093
:1006B4005395C9F77EF41F16BA0B620B730B840BA8
:1006C400BAF09150A1F0FF0FBB1F661F771F881F60
:1006D400C2F70EC0BA0F621F731F841F48F48795B8
:1006E40077956795B795F7959E3F08F0B0CF9395AA
:0E06F400880F08F09927EE0F979587950895C7
:10070200CF92DF92EF92FF92CF936B017C018FEF3A
:1007120087BBC701B6010E945E05C598C69AC49AF6
:10072200C098C198C298C39888B3862B88BB2FEF14
:1007320083EF91E0215080409040E1F700C000003B
:10074200C59AC698C49AC098C198C298C398C8B3AB
:1007520070E080E090E00E944F049B01AC01C70171
:10076200B6010E945A0620E030E040E251E40E94C5
:100772008F060E945E05C62BC8BB2FEF83EF91E068
:10078200215080409040E1F700C00000CF91FF90DF
:08079200EF90DF90CF90089575
:10079A001F920F920FB60F9211242F933F934F93EC
:1007AA005F936F937F938F939F93AF93BF93EF93CF
:1007BA00FF9320E030E040EA50E4609164007091D9
:1007CA00650080916600909167000E945B066093C5
:1007DA00640070936500809366009093670020E040
:1007EA0030E040E251E40E948B060E948103FF91AF
:1007FA00EF91BF91AF919F918F917F916F915F918F
:10080A004F913F912F910F900FBE0F901F90189507
:10081A001F920F920FB60F9211242F933F934F936B
:10082A005F936F937F938F939F93AF93BF93EF934E
:10083A00FF9320E030E040EA50E460916400709158
:10084A00650080916600909167000E945A06609345
:10085A00640070936500809366009093670020E0BF
:10086A0030E040E251E40E948B060E948103FF912E
:10087A00EF91BF91AF919F918F917F916F915F910E
:10088A004F913F912F910F900FBE0F901F90189587
:10089A00E89409C097FB3EF4909580957095619510
:1008AA007F4F8F4F9F4F9923A9F0F92F96E9BB27C6
:1008BA009395F695879577956795B795F111F8CF42
:1008CA00FAF4BB0F11F460FF1BC06F5F7F4F8F4FAD
:1008DA009F4F16C0882311F096E911C0772321F0A3
:1008EA009EE8872F762F05C0662371F096E8862F3B
:1008FA0070E060E02AF09A95660F771F881FDAF792
:0A090A00880F9695879597F90895D8
:1009140081309105A9F01CF4892B39F008958230B7
:100924009105C9F0039711F108952BB381E090E08C
:1009340002C0880F991F6A95E2F782278BBB08953E
:1009440028B381E090E002C0880F991F6A95E2F70E
:10095400822788BB089525B381E090E002C0880F08
:10096400991F6A95E2F7822785BB089522B381E037
:1009740090E002C0880F991F6A95E2F7822782BB34
:020984000895D4
:1009860081309105A1F01CF4892B39F02EC08230FC
:100996009105B9F00397F9F028C089B390E002C039
:1009A600959587956A95E2F781709927089586B39C
:1009B60090E002C0959587956A95E2F78170992730
:1009C600089583B390E002C0959587956A95E2F7FE
:1009D60081709927089580B390E002C09595879518
:1009E6006A95E2F781709927089580E090E008956E
:1009F6008130910579F082309105D1F0892B51F53E
:100A060085B78C7F85BF85B7682B65BF8BB780643C
:100A16008BBF089585B7837F85BF85B7660F771F20
:100A2600660F771F682B65BF8BB780688BBF0895ED
:100A360084B78F7B84BF84B7002476956795079427
:100A4600769567950794762F602D682B64BF8BB7D4
:060A560080628BBF0895D1
:100A5C00672BC9F08130910569F01CF4892B39F0B2
:100A6C0008958230910549F0039751F008958FEF66
:100A7C008ABB08958FEF87BB08958FEF84BB0895D1
:100A8C008FEF81BB08958130910561F01CF4892BA7
:100A9C0039F008958230910539F0039739F00895B3
:100AAC001ABA089517BA089514BA089511BA089588
:100ABC000E94B90588F09F5798F0B92F9927B75124
:100ACC00B0F0E1F0660F771F881F991F1AF0BA95E6
:100ADC00C9F714C0B13091F00E946F06B1E00895CF
:100AEC000C946F06672F782F8827B85F39F0B93FC1
:100AFC00CCF3869577956795B395D9F73EF4909599
:0E0B0C008095709561957F4F8F4F9F4F089594
:100B1A00990F0008550FAA0BE0E8FEEF1616170604
:100B2A00E807F907C0F012161306E407F50798F06C
:100B3A00621B730B840B950B39F40A2661F0232B85
:100B4A00242B252B21F408950A2609F4A140A69501
:080B5A008FEF811D811D08953C
:100B620057FD9058440F551F59F05F3F71F047955C
:100B7200880F97FB991F61F09F3F79F08795089541
:100B8200121613061406551FF2CF4695F1DF08C060
:100B9200161617061806991FF1CF8695710561057D
:040BA2000894089516
:100BA600672B71F08130910539F08230910531F073
:100BB600892B99F4A89A0895A99A0895929A089566
:100BC6008130910539F08230910531F0892B29F475
:0C0BD600A8980895A99808959298089591
:100BE200CF93DF93EC0141E050E060E070E080E001
:100BF20090E00E94E50083B78F7C83BF83B7C295E4
:100C0200D295D07FDC27C07FDC27C82BC3BFDF9102
:040C1200CF910895E1
:100C16008130910561F01CF4892B39F008958230FA
:100C2600910539F0039739F008956BBB089568BBB9
:0A0C3600089565BB089562BB0895A0
:100C4000092E0394000C11F4882352F0BB0F40F4DA
:100C5000BF2B11F460FF04C06F5F7F4F8F4F9F4F1A
:020C60000895F5
:100C620093B7977B93BF93B7987F93BF93B7892B23
:0A0C720083BF83B7682B63BF0895AA
:100C7C00262FE199FECF9FBB8EBB2DBB0FB6F894F0
:0A0C8C00E29AE19A0FBE0196089566
:100C9600242F0E943F06252F0E943F060C948606AD
:0E0CA600349BFECF84B125B190E0922B0895CF
:0E0CB4005058BB27AA270E941A030C94200652
:0E0CC20000240A94161617061806090608954F
:0E0CD00000240A941216130614060506089551
:0E0CDE00E894BB2766277727CB0197F9089586
:0C0CEC0097F99F6780E870E060E00895D1
:0A0CF80084B3836084BBA29A0895C0
:0A0D02000E948D0508F481E00895B9
:0A0D0C000E943E06272F0C943F06BC
:080D16000E94D5010C94200697
:080D1E000E94B0020C942006B3
:060D26009FEF80EC089530
:040D2C000C94000023
:040D30008CBF0895D7
:040D3400369A08954E
:040D38000000704205
:00000001FF
