:100000000C9433000C943A040C948E040C948C07DA
:100010000C948C070C948C070C948C070C948C0714
:100020000C948C070C948C070C944F010C948C0747
:100030000C948C070C948C070C948C070C948C07F4
:100040000C948C070C948C070C948C070C948C07E4
:100050000C948C07006000648000640068000F242A
:100060000068006F800011241FBECFE5D8E0DEBF1E
:10007000CDBFE4E5F0E040E017C0B591A591359122
:100080002591059107FD0CC095918591EF01F92F00
:10009000E82F05900D92A217B307D9F7FE0104C00F
:1000A0001D92A217B307E1F7E536F40731F70E9476
:0A00B0005D000C945B00F894FFCF94
:1000BA008F929F92AF92BF92CF92DF92EF92FF926E
:1000CA0060E070E083E090E00E94130663E070E075
:1000DA0080E090E00E94E00563E070E081E090E05B
:1000EA000E94E00582E090E00E94D60663E070E09C
:1000FA0088E090E00E9419078AEF0E948E077894A0
:10010A000E946D0747E050E061E070E080E090E017
:10011A000E94F00641E050E062E070E082E090E088
:10012A000E940A0241E050E064E070E082E090E060
:10013A000E940A029BC020E030E040E251E4609154
:10014A0064007091650080916600909167000E943A
:10015A0081070E94E2048090640090906500A0905C
:10016A006600B0906700C0906000D0906100E09097
:10017A006200F0906300A7019601C501B4010E94D4
:10018A004B0720E030E040EA50E40E9477078823DA
:10019A00DCF020E030E0A901C701B6010E94720735
:1001AA008823D1F141E050E064E070E082E090E021
:1001BA000E9482022FEF83EC99E021508040904008
:1001CA00E1F700C0000028C0A5019401C701B601EB
:1001DA000E944B0720E030E040EA50E40E94770793
:1001EA008823D4F020E030E0A901C701B6010E94BB
:1001FA007207882389F041E050E062E070E082E013
:10020A0090E00E9482022FEF83EC99E02150804017
:10021A009040E1F700C00000209160003091610039
:10022A004091620050916300609164007091650092
:10023A0080916600909167000E947207811116C032
:10024A0040E050E062E070E082E090E00E948202CA
:10025A0040E050E064E070E082E090E00E948202B8
:10026A0060E070E080E090E00E94B80664E070E030
:10027A0083E090E00E94A805892B09F05CCF80E01A
:10028A0090E0FF90EF90DF90CF90BF90AF909F905B
:04029A008F900895A4
:10029E001F920F920FB60F921124CF92DF92EF9210
:1002AE00FF922F933F934F935F936F937F938F9311
:1002BE009F93AF93BF93CF93EF93FF93C090640040
:1002CE00D0906500E0906600F090670080916C0021
:1002DE0090916D00019690936D0080936C0020912B
:1002EE006A0030916B002F5F3F4F30936B0020936D
:1002FE006A0020916800309169002F5F3F4F309364
:10030E0069002093680084369105B9F40E94900725
:10031E000E944407109260001092610010926200D9
:10032E001092630040E050E0BA0184E190E00E9438
:10033E003C0710926D0010926C0080916A009091B3
:10034E006B00883E934021F510926E00CAE064E186
:10035E0070E080E00E94330790916E00890F8093C9
:10036E006E00C150A1F79DEC899F812D11248695B9
:10037E008695869580936E009C9B0AC060E070E027
:10038E0082E090E00E946F0510926B0010926A005E
:10039E00809168009091690088389341F1F4209122
:1003AE006400309165004091660050916700C7016E
:1003BE00B6010E947207811110C040E050E065E066
:1003CE0070E081E090E00E94820240E050E066E042
:1003DE0070E081E090E00E948202FF91EF91CF9158
:1003EE00BF91AF919F918F917F916F915F914F913F
:1003FE003F912F91FF90EF90DF90CF900F900FBE17
:06040E000F901F901895ED
:10041400452BC9F181309105A9F01CF4892B39F0E1
:10042400089582309105C9F0039711F108952AB314
:1004340081E090E002C0880F991F6A95E2F7822B51
:100444008ABB089527B381E090E002C0880F991F0A
:100454006A95E2F7822B87BB089524B381E090E08C
:1004640002C0880F991F6A95E2F7822B84BB089516
:1004740021B381E090E002C0880F991F6A95E2F7EA
:10048400822B81BB089581309105B1F01CF4892B36
:1004940039F0089582309105D9F0039729F1089530
:1004A4002AB381E090E002C0880F991F6A95E2F7B1
:1004B400809582238ABB089527B381E090E002C02F
:1004C400880F991F6A95E2F78095822387BB089568
:1004D40024B381E090E002C0880F991F6A95E2F787
:1004E4008095822384BB089521B381E090E002C00B
:1004F400880F991F6A95E2F78095822381BB08953E
:10050400452BC9F181309105A9F01CF4892B39F0F0
:10051400089582309105C9F0039711F108952BB322
:1005240081E090E002C0880F991F6A95E2F7822B60
:100534008BBB089528B381E090E002C0880F991F17
:100544006A95E2F7822B88BB089525B381E090E099
:1005540002C0880F991F6A95E2F7822B85BB089524
:1005640022B381E090E002C0880F991F6A95E2F7F8
:10057400822B82BB089581309105B1F01CF4892B44
:1005840039F0089582309105D9F0039729F108953F
:100594002BB381E090E002C0880F991F6A95E2F7BF
:1005A400809582238BBB089528B381E090E002C03C
:1005B400880F991F6A95E2F78095822388BB089576
:1005C40025B381E090E002C0880F991F6A95E2F795
:1005D4008095822385BB089522B381E090E002C018
:1005E400880F991F6A95E2F78095822382BB08954C
:1005F40010C00E94590758F00E94520740F029F495
:100604005F3F29F00C94670751110C9461070C9417
:1006140089070E94960668F39923B1F3552391F351
:10062400951B550BBB27AA2762177307840738F05D
:100634009F5F5F4F220F331F441FAA1FA9F335D0BA
:100644000E2E3AF0E0E832D091505040E695001C6E
:10065400CAF72BD0FE2F29D0660F771F881FBB1F28
:10066400261737074807AB07B0E809F0BB0B802D06
:10067400BF01FF2793585F4F3AF09E3F510578F032
:100684000C9467070C9461075F3FE4F3983ED4F33E
:10069400869577956795B795F7959F5FC9F7880F06
:1006A400911D9695879597F90895E1E0660F771F58
:1006B400881FBB1F621773078407BA0720F0621BE9
:0E06C400730B840BBA0BEE1F88F7E0950895B8
:1006D2000FC00E94520738F00E94590720F095235C
:1006E20011F00C9467070C94890711240C9461078C
:1006F2000E94960670F3959FC1F3950F50E0551F27
:10070200629FF001729FBB27F00DB11D639FAA2764
:10071200F00DB11DAA1F649F6627B00DA11D661FB3
:10072200829F2227B00DA11D621F739FB00DA11DD4
:10073200621F839FA00D611D221F749F3327A00D8E
:10074200611D231F849F600D211D822F762F6A2F2A
:1007520011249F5750409AF0F1F088234AF0EE0F8F
:10076200FF1FBB1F661F771F881F91505040A9F7BC
:100772009E3F510580F00C9467070C9461075F3F20
:10078200E4F3983ED4F3869577956795B795F795F8
:10079200E7959F5FC1F7FE2B880F911D9695879570
:0407A20097F9089526
:1007A60011C00E94520738F00E94590720F039F410
:1007B6009F3F19F426F40C9489070EF4E095E7FBA5
:1007C6000C946707E92F0E94960658F3BA1762073A
:1007D60073078407950720F079F4A6F50C94600753
:1007E6000EF4E0950B2EBA2FA02D0B01B901900146
:1007F6000C01CA01A0011124FF27591B99F0593F8A
:1008060050F4503E68F11A16F040A22F232F342FD1
:100816004427585FF3CF469537952795A795F0401F
:100826005395C9F77EF41F16BA0B620B730B840B34
:10083600BAF09150A1F0FF0FBB1F661F771F881FEC
:10084600C2F70EC0BA0F621F731F841F48F4879544
:1008560077956795B795F7959E3F08F0B0CF939536
:0E086600880F08F09927EE0F97958795089553
:100874001F920F920FB60F921124CF92DF92EF9234
:10088400FF922F933F934F935F936F937F938F9335
:100894009F93AF93BF93EF93FF93C0906400D09066
:1008A4006500E0906600F090670020E030E046E9E3
:1008B40052E4C701B6010E9472078823C4F420E001
:1008C40030E040EA50E4C701B6010E944C0760934F
:1008D400640070936500809366009093670020E045
:1008E40030E040E251E40E9481070E94E204FF915B
:1008F400EF91BF91AF919F918F917F916F915F9194
:100904004F913F912F91FF90EF90DF90CF900F90F8
:080914000FBE0F901F90189513
:10091C001F920F920FB60F921124CF92DF92EF928B
:10092C00FF922F933F934F935F936F937F938F938C
:10093C009F93AF93BF93EF93FF93C0906400D090BD
:10094C006500E0906600F090670020E030E04CE03D
:10095C0052E4C701B6010E9477071816C4F420E0D0
:10096C0030E040EA50E4C701B6010E944B076093A7
:10097C00640070936500809366009093670020E09C
:10098C0030E040E251E40E9481070E94E204FF91B2
:10099C00EF91BF91AF919F918F917F916F915F91EB
:1009AC004F913F912F91FF90EF90DF90CF900F9050
:0809BC000FBE0F901F9018956B
:1009C400CF92DF92EF92FF92CF936B017C0161E0B3
:1009D40070E081E090E00E941306C701B6010E9416
:1009E4004306C598C69AC49AC098C198C298C39839
:1009F40088B3862B88BB2FEF83EF91E02150804092
:100A04009040E1F700C00000C59AC698C49AC09807
:100A1400C198C298C398C8B370E080E090E00E9487
:100A240034059B01AC01C701B6010E944B0720E0CD
:100A340030E040E251E40E9485070E944306C62B41
:100A4400C8BB2FEF83EF91E0215080409040E1F745
:100A540000C00000CF91FF90EF90DF90CF900895F9
:100A6400E89409C097FB3EF4909580957095619544
:100A74007F4F8F4F9F4F9923A9F0F92F96E9BB27FA
:100A84009395F695879577956795B795F111F8CF76
:100A9400FAF4BB0F11F460FF1BC06F5F7F4F8F4FE1
:100AA4009F4F16C0882311F096E911C0772321F0D7
:100AB4009EE8872F762F05C0662371F096E8862F6F
:100AC40070E060E02AF09A95660F771F881FDAF7C6
:0A0AD400880F9695879597F908950D
:100ADE0081309105A9F01CF4892B39F008958230EC
:100AEE009105C9F0039711F108952BB381E090E0C1
:100AFE0002C0880F991F6A95E2F782278BBB089573
:100B0E0028B381E090E002C0880F991F6A95E2F742
:100B1E00822788BB089525B381E090E002C0880F3C
:100B2E00991F6A95E2F7822785BB089522B381E06B
:100B3E0090E002C0880F991F6A95E2F7822782BB68
:020B4E00089508
:100B500081309105A1F01CF4892B39F02EC0823030
:100B60009105B9F00397F9F028C089B390E002C06D
:100B7000959587956A95E2F781709927089586B3D0
:100B800090E002C0959587956A95E2F78170992764
:100B9000089583B390E002C0959587956A95E2F732
:100BA00081709927089580B390E002C0959587954C
:100BB0006A95E2F781709927089580E090E00895A2
:100BC0008130910579F082309105D1F0892B51F572
:100BD00085B78C7F85BF85B7682B65BF8BB7806471
:100BE0008BBF089585B7837F85BF85B7660F771F55
:100BF000660F771F682B65BF8BB780688BBF089522
:100C000084B78F7B84BF84B700247695679507945B
:100C1000769567950794762F602D682B64BF8BB708
:060C200080628BBF089505
:100C2600672BC9F08130910569F01CF4892B39F0E6
:100C360008958230910549F0039751F008958FEF9A
:100C46008ABB08958FEF87BB08958FEF84BB089505
:100C56008FEF81BB08958130910561F01CF4892BDB
:100C660039F008958230910539F0039739F00895E7
:100C76001ABA089517BA089514BA089511BA0895BC
:100C86000E949E0688F09F5798F0B92F9927B75172
:100C9600B0F0E1F0660F771F881F991F1AF0BA951A
:100CA600C9F714C0B13091F00E946007B1E0089511
:100CB6000C946007672F782F8827B85F39F0B93F03
:100CC600CCF3869577956795B395D9F73EF49095CD
:0E0CD6008095709561957F4F8F4F9F4F0895C9
:100CE400990F0008550FAA0BE0E8FEEF1616170639
:100CF400E807F907C0F012161306E407F50798F0A1
:100D0400621B730B840B950B39F40A2661F0232BB9
:100D1400242B252B21F408950A2609F4A140A69535
:080D24008FEF811D811D089570
:100D2C0057FD9058440F551F59F05F3F71F0479590
:100D3C00880F97FB991F61F09F3F79F08795089575
:100D4C00121613061406551FF2CF4695F1DF08C094
:100D5C00161617061806991FF1CF869571056105B1
:040D6C00089408954A
:100D7000672B71F08130910539F08230910531F0A7
:100D8000892B99F4A89A0895A99A0895929A08959A
:100D90008130910539F08230910531F0892B29F4A9
:0C0DA000A8980895A998089592980895C5
:100DAC00CF93DF93EC0141E050E060E070E080E035
:100DBC0090E00E940A0283B78F7C83BF83B7C295F1
:100DCC00D295D07FDC27C07FDC27C82BC3BFDF9137
:040DDC00CF91089516
:100DE00017B897B1892B87B987B100247695679595
:100DF0000794769567950794762F602D682B67B9D1
:100E000086B1887F86B986B1482B46B9379A08954E
:100E1000092E0394000C11F4882352F0BB0F40F408
:100E2000BF2B11F460FF04C06F5F7F4F8F4F9F4F48
:020E3000089523
:100E320093B7977B93BF93B7987F93BF93B7892B51
:0A0E420083BF83B7682B63BF0895D8
:100E4C00262FE199FECF9FBB8EBB2DBB0FB6F8941E
:0A0E5C00E29AE19A0FBE0196089594
:100E6600CB01E199FECF9FBB8EBBE09A99278DB34C
:020E76000895DD
:100E7800242F0E942707252F0E9427070C947C0700
:0E0E8800349BFECF84B125B190E0922B0895EB
:0E0E96005058BB27AA270E94D3030C940807CC
:0E0EA40000240A94161617061806090608956B
:0E0EB20000240A94121613061406050608956D
:0E0EC000E894BB2766277727CB0197F90895A2
:0C0ECE0097F99F6780E870E060E00895ED
:0A0EDA0084B3836084BBA29A0895DC
:0A0EE4000E94720608F481E00895F0
:0A0EEE000E94720608F48FEF0895C9
:0A0EF8000E942607272F0C942707FD
:080F02000E94FA020C9408079A
:080F0A000E9469030C94080722
:060F12009FEF80EC089542
:040F18000C94000035
:040F1C008CBF0895E9
:040F2000369A089560
:040F24000000704217
:00000001FF
